{
  "_format": "hh-sol-artifact-1",
  "contractName": "Transactions",
  "sourceName": "contracts/Transcations.sol",
  "abi": [
    {
      "anonymous": false,
      "inputs": [
        {
          "indexed": false,
          "internalType": "address",
          "name": "from",
          "type": "address"
        },
        {
          "indexed": false,
          "internalType": "address",
          "name": "receiver",
          "type": "address"
        },
        {
          "indexed": false,
          "internalType": "uint256",
          "name": "amount",
          "type": "uint256"
        },
        {
          "indexed": false,
          "internalType": "string",
          "name": "message",
          "type": "string"
        },
        {
          "indexed": false,
          "internalType": "uint256",
          "name": "timestamp",
          "type": "uint256"
        },
        {
          "indexed": false,
          "internalType": "string",
          "name": "keyword",
          "type": "string"
        }
      ],
      "name": "Transfer",
      "type": "event"
    },
    {
      "inputs": [
        {
          "internalType": "address payable",
          "name": "receiver",
          "type": "address"
        },
        {
          "internalType": "uint256",
          "name": "amount",
          "type": "uint256"
        },
        {
          "internalType": "string",
          "name": "message",
          "type": "string"
        },
        {
          "internalType": "string",
          "name": "keyword",
          "type": "string"
        }
      ],
      "name": "addToBlockchian",
      "outputs": [],
      "stateMutability": "nonpayable",
      "type": "function"
    },
    {
      "inputs": [],
      "name": "getAllTransactions",
      "outputs": [
        {
          "components": [
            {
              "internalType": "address",
              "name": "sender",
              "type": "address"
            },
            {
              "internalType": "address",
              "name": "receiver",
              "type": "address"
            },
            {
              "internalType": "uint256",
              "name": "amount",
              "type": "uint256"
            },
            {
              "internalType": "string",
              "name": "message",
              "type": "string"
            },
            {
              "internalType": "uint256",
              "name": "timestamp",
              "type": "uint256"
            },
            {
              "internalType": "string",
              "name": "keyword",
              "type": "string"
            }
          ],
          "internalType": "struct Transactions.TransferStruct[]",
          "name": "",
          "type": "tuple[]"
        }
      ],
      "stateMutability": "view",
      "type": "function"
    },
    {
      "inputs": [],
      "name": "getTransactionCount",
      "outputs": [
        {
          "internalType": "uint256",
          "name": "",
          "type": "uint256"
        }
      ],
      "stateMutability": "view",
      "type": "function"
    }
  ],
  "bytecode": "0x608060405234801561001057600080fd5b50610e33806100206000396000f3fe608060405234801561001057600080fd5b50600436106100415760003560e01c806327506f53146100465780632e7700f0146100645780635f3fb08214610082575b600080fd5b61004e61009e565b60405161005b91906106df565b60405180910390f35b61006c6102e1565b6040516100799190610710565b60405180910390f35b61009c600480360381019061009791906108de565b6102e6565b005b60606001805480602002602001604051908101604052809291908181526020016000905b828210156102d857838290600052602060002090600602016040518060c00160405290816000820160009054906101000a900473ffffffffffffffffffffffffffffffffffffffff1673ffffffffffffffffffffffffffffffffffffffff1673ffffffffffffffffffffffffffffffffffffffff1681526020016001820160009054906101000a900473ffffffffffffffffffffffffffffffffffffffff1673ffffffffffffffffffffffffffffffffffffffff1673ffffffffffffffffffffffffffffffffffffffff168152602001600282015481526020016003820180546101ab906109ac565b80601f01602080910402602001604051908101604052809291908181526020018280546101d7906109ac565b80156102245780601f106101f957610100808354040283529160200191610224565b820191906000526020600020905b81548152906001019060200180831161020757829003601f168201915b5050505050815260200160048201548152602001600582018054610247906109ac565b80601f0160208091040260200160405190810160405280929190818152602001828054610273906109ac565b80156102c05780601f10610295576101008083540402835291602001916102c0565b820191906000526020600020905b8154815290600101906020018083116102a357829003601f168201915b505050505081525050815260200190600101906100c2565b50505050905090565b600090565b60016000808282546102f89190610a0c565b9250508190555060016040518060c001604052803373ffffffffffffffffffffffffffffffffffffffff1681526020018673ffffffffffffffffffffffffffffffffffffffff16815260200185815260200184815260200142815260200183815250908060018154018082558091505060019003906000526020600020906006020160009091909190915060008201518160000160006101000a81548173ffffffffffffffffffffffffffffffffffffffff021916908373ffffffffffffffffffffffffffffffffffffffff16021790555060208201518160010160006101000a81548173ffffffffffffffffffffffffffffffffffffffff021916908373ffffffffffffffffffffffffffffffffffffffff1602179055506040820151816002015560608201518160030190816104309190610c0e565b506080820151816004015560a08201518160050190816104509190610c0e565b5050507f416cfa4330a4565f45c2fd2dd4826a83a37443aba2ce6f79477c7355afac35fa33858585428660405161048c96959493929190610d8e565b60405180910390a150505050565b600081519050919050565b600082825260208201905092915050565b6000819050602082019050919050565b600073ffffffffffffffffffffffffffffffffffffffff82169050919050565b60006104f1826104c6565b9050919050565b610501816104e6565b82525050565b6000819050919050565b61051a81610507565b82525050565b600081519050919050565b600082825260208201905092915050565b60005b8381101561055a57808201518184015260208101905061053f565b83811115610569576000848401525b50505050565b6000601f19601f8301169050919050565b600061058b82610520565b610595818561052b565b93506105a581856020860161053c565b6105ae8161056f565b840191505092915050565b600060c0830160008301516105d160008601826104f8565b5060208301516105e460208601826104f8565b5060408301516105f76040860182610511565b506060830151848203606086015261060f8282610580565b91505060808301516106246080860182610511565b5060a083015184820360a086015261063c8282610580565b9150508091505092915050565b600061065583836105b9565b905092915050565b6000602082019050919050565b60006106758261049a565b61067f81856104a5565b935083602082028501610691856104b6565b8060005b858110156106cd57848403895281516106ae8582610649565b94506106b98361065d565b925060208a01995050600181019050610695565b50829750879550505050505092915050565b600060208201905081810360008301526106f9818461066a565b905092915050565b61070a81610507565b82525050565b60006020820190506107256000830184610701565b92915050565b6000604051905090565b600080fd5b600080fd5b600061074a826104c6565b9050919050565b61075a8161073f565b811461076557600080fd5b50565b60008135905061077781610751565b92915050565b61078681610507565b811461079157600080fd5b50565b6000813590506107a38161077d565b92915050565b600080fd5b600080fd5b7f4e487b7100000000000000000000000000000000000000000000000000000000600052604160045260246000fd5b6107eb8261056f565b810181811067ffffffffffffffff8211171561080a576108096107b3565b5b80604052505050565b600061081d61072b565b905061082982826107e2565b919050565b600067ffffffffffffffff821115610849576108486107b3565b5b6108528261056f565b9050602081019050919050565b82818337600083830152505050565b600061088161087c8461082e565b610813565b90508281526020810184848401111561089d5761089c6107ae565b5b6108a884828561085f565b509392505050565b600082601f8301126108c5576108c46107a9565b5b81356108d584826020860161086e565b91505092915050565b600080600080608085870312156108f8576108f7610735565b5b600061090687828801610768565b945050602061091787828801610794565b935050604085013567ffffffffffffffff8111156109385761093761073a565b5b610944878288016108b0565b925050606085013567ffffffffffffffff8111156109655761096461073a565b5b610971878288016108b0565b91505092959194509250565b7f4e487b7100000000000000000000000000000000000000000000000000000000600052602260045260246000fd5b600060028204905060018216806109c457607f821691505b6020821081036109d7576109d661097d565b5b50919050565b7f4e487b7100000000000000000000000000000000000000000000000000000000600052601160045260246000fd5b6000610a1782610507565b9150610a2283610507565b9250827fffffffffffffffffffffffffffffffffffffffffffffffffffffffffffffffff03821115610a5757610a566109dd565b5b828201905092915050565b60008190508160005260206000209050919050565b60006020601f8301049050919050565b600082821b905092915050565b600060088302610ac47fffffffffffffffffffffffffffffffffffffffffffffffffffffffffffffffff82610a87565b610ace8683610a87565b95508019841693508086168417925050509392505050565b6000819050919050565b6000610b0b610b06610b0184610507565b610ae6565b610507565b9050919050565b6000819050919050565b610b2583610af0565b610b39610b3182610b12565b848454610a94565b825550505050565b600090565b610b4e610b41565b610b59818484610b1c565b505050565b5b81811015610b7d57610b72600082610b46565b600181019050610b5f565b5050565b601f821115610bc257610b9381610a62565b610b9c84610a77565b81016020851015610bab578190505b610bbf610bb785610a77565b830182610b5e565b50505b505050565b600082821c905092915050565b6000610be560001984600802610bc7565b1980831691505092915050565b6000610bfe8383610bd4565b9150826002028217905092915050565b610c1782610520565b67ffffffffffffffff811115610c3057610c2f6107b3565b5b610c3a82546109ac565b610c45828285610b81565b600060209050601f831160018114610c785760008415610c66578287015190505b610c708582610bf2565b865550610cd8565b601f198416610c8686610a62565b60005b82811015610cae57848901518255600182019150602085019450602081019050610c89565b86831015610ccb5784890151610cc7601f891682610bd4565b8355505b6001600288020188555050505b505050505050565b610ce9816104e6565b82525050565b6000610d0a610d05610d00846104c6565b610ae6565b6104c6565b9050919050565b6000610d1c82610cef565b9050919050565b6000610d2e82610d11565b9050919050565b610d3e81610d23565b82525050565b600082825260208201905092915050565b6000610d6082610520565b610d6a8185610d44565b9350610d7a81856020860161053c565b610d838161056f565b840191505092915050565b600060c082019050610da36000830189610ce0565b610db06020830188610d35565b610dbd6040830187610701565b8181036060830152610dcf8186610d55565b9050610dde6080830185610701565b81810360a0830152610df08184610d55565b905097965050505050505056fea2646970667358221220892634d34ae5210bae6827142393fa9c9fc1629de84d37ba60e24425cc920a8f64736f6c634300080f0033",
  "linkReferences": {},
  "deployedLinkReferences": {}
}